:060000000A128A11FC2F18
:100F7E0083160313880183120313880108140930A2
:100F8E00F2001E30F100E430F000F00BCC2FF10B2C
:100F9E00CC2FF20BCC2F0000831203130810081570
:100FAE000930F2001E30F100E430F000F00BDD2FBE
:100FBE00F10BDD2FF20BDD2F00008312031308114E
:100FCE0088140930F2001E30F100E430F000F00B0E
:100FDE00EE2FF10BEE2FF20BEE2F00008312031308
:100FEE008810C52F0A128A11002883010A128A114D
:020FFE00BF2F03
:02400E00FF3F72
:00000001FF
